{
  "_format": "hh-sol-artifact-1",
  "contractName": "stakingContract",
  "sourceName": "contracts/staking _contract.sol",
  "abi": [
    {
      "inputs": [
        {
          "internalType": "address",
          "name": "staking_pool_address",
          "type": "address"
        },
        {
          "internalType": "address",
          "name": "reward_contract",
          "type": "address"
        },
        {
          "internalType": "uint256",
          "name": "reward_percentage",
          "type": "uint256"
        },
        {
          "internalType": "uint256",
          "name": "time_lock_in_seconds",
          "type": "uint256"
        }
      ],
      "stateMutability": "nonpayable",
      "type": "constructor"
    },
    {
      "anonymous": false,
      "inputs": [
        {
          "indexed": true,
          "internalType": "uint256",
          "name": "_pool",
          "type": "uint256"
        },
        {
          "indexed": true,
          "internalType": "address",
          "name": "_staker",
          "type": "address"
        },
        {
          "indexed": true,
          "internalType": "uint256",
          "name": "_amount",
          "type": "uint256"
        },
        {
          "indexed": false,
          "internalType": "string",
          "name": "_message",
          "type": "string"
        }
      ],
      "name": "staking_events",
      "type": "event"
    },
    {
      "inputs": [],
      "name": "TimeLock_on_fixed_pool",
      "outputs": [
        {
          "internalType": "uint256",
          "name": "",
          "type": "uint256"
        }
      ],
      "stateMutability": "view",
      "type": "function"
    },
    {
      "inputs": [
        {
          "internalType": "uint256",
          "name": "_id",
          "type": "uint256"
        },
        {
          "internalType": "uint256",
          "name": "_type",
          "type": "uint256"
        }
      ],
      "name": "create_pool",
      "outputs": [
        {
          "internalType": "uint256",
          "name": "",
          "type": "uint256"
        }
      ],
      "stateMutability": "nonpayable",
      "type": "function"
    },
    {
      "inputs": [
        {
          "internalType": "uint256",
          "name": "_pool",
          "type": "uint256"
        },
        {
          "internalType": "uint256",
          "name": "_index",
          "type": "uint256"
        }
      ],
      "name": "reward",
      "outputs": [],
      "stateMutability": "nonpayable",
      "type": "function"
    },
    {
      "inputs": [
        {
          "internalType": "uint256",
          "name": "_pool",
          "type": "uint256"
        }
      ],
      "name": "staker_indexex_per_pool",
      "outputs": [
        {
          "internalType": "uint256[]",
          "name": "",
          "type": "uint256[]"
        }
      ],
      "stateMutability": "view",
      "type": "function"
    },
    {
      "inputs": [
        {
          "internalType": "uint256",
          "name": "_pool",
          "type": "uint256"
        },
        {
          "internalType": "uint256",
          "name": "amount",
          "type": "uint256"
        }
      ],
      "name": "staking",
      "outputs": [],
      "stateMutability": "nonpayable",
      "type": "function"
    }
  ],
  "bytecode": "0x6080604052670de0b6b3a764000060015567016345785d8a00006002553480156200002957600080fd5b506040516200299d3803806200299d83398181016040528101906200004f9190620001cd565b83600460006101000a81548173ffffffffffffffffffffffffffffffffffffffff021916908373ffffffffffffffffffffffffffffffffffffffff16021790555082600560006101000a81548173ffffffffffffffffffffffffffffffffffffffff021916908373ffffffffffffffffffffffffffffffffffffffff1602179055508160038190555080600081905550600581620000ee91906200026e565b600781905550600a816200010391906200026e565b600881905550600f816200011891906200026e565b60098190555050505050620002b9565b600080fd5b600073ffffffffffffffffffffffffffffffffffffffff82169050919050565b60006200015a826200012d565b9050919050565b6200016c816200014d565b81146200017857600080fd5b50565b6000815190506200018c8162000161565b92915050565b6000819050919050565b620001a78162000192565b8114620001b357600080fd5b50565b600081519050620001c7816200019c565b92915050565b60008060008060808587031215620001ea57620001e962000128565b5b6000620001fa878288016200017b565b94505060206200020d878288016200017b565b93505060406200022087828801620001b6565b92505060606200023387828801620001b6565b91505092959194509250565b7f4e487b7100000000000000000000000000000000000000000000000000000000600052601160045260246000fd5b60006200027b8262000192565b9150620002888362000192565b9250828202620002988162000192565b91508282048414831517620002b257620002b16200023f565b5b5092915050565b6126d480620002c96000396000f3fe608060405234801561001057600080fd5b50600436106100575760003560e01c80630cfcb8151461005c5780632e9f411e1461007a578063a4fa8d5714610096578063c6697034146100b2578063f8381884146100e2575b600080fd5b610064610112565b60405161007191906116a7565b60405180910390f35b610094600480360381019061008f91906116f3565b61011b565b005b6100b060048036038101906100ab91906116f3565b610202565b005b6100cc60048036038101906100c79190611733565b610394565b6040516100d9919061181e565b60405180910390f35b6100fc60048036038101906100f791906116f3565b61043c565b60405161010991906116a7565b60405180910390f35b60008054905090565b60003390506000600a6000858152602001908152602001600020604051806040016040529081600082015481526020016001820160009054906101000a900460ff16600181111561016f5761016e611840565b5b600181111561018157610180611840565b5b81525050905060008160000151036101ce576040517f08c379a00000000000000000000000000000000000000000000000000000000081526004016101c5906118cc565b60405180910390fd5b6101fc84600460009054906101000a900473ffffffffffffffffffffffffffffffffffffffff16848661051b565b50505050565b6000339050600060015490506000600a6000868152602001908152602001600020604051806040016040529081600082015481526020016001820160009054906101000a900460ff16600181111561025d5761025c611840565b5b600181111561026f5761026e611840565b5b8152505090506000600181111561028957610288611840565b5b816020015160018111156102a05761029f611840565b5b036102d9576102d485600460009054906101000a900473ffffffffffffffffffffffffffffffffffffffff16858786610a28565b61038d565b6001808111156102ec576102eb611840565b5b8160200151600181111561030357610302611840565b5b0361033b5761033685600460009054906101000a900473ffffffffffffffffffffffffffffffffffffffff168587610ddd565b61038c565b84600010801561034c575060068511155b61038b576040517f08c379a0000000000000000000000000000000000000000000000000000000008152600401610382906118cc565b60405180910390fd5b5b5b5050505050565b6060600e600083815260200190815260200160002060003373ffffffffffffffffffffffffffffffffffffffff1673ffffffffffffffffffffffffffffffffffffffff16815260200190815260200160002080548060200260200160405190810160405280929190818152602001828054801561043057602002820191906000526020600020905b81548152602001906001019080831161041c575b50505050509050919050565b6000610446611662565b838160000181815250506000830361048e5760008160200190600181111561047157610470611840565b5b9081600181111561048557610484611840565b5b815250506104c0565b6001816020019060018111156104a7576104a6611840565b5b908160018111156104bb576104ba611840565b5b815250505b80600a60008681526020019081526020016000206000820151816000015560208201518160010160006101000a81548160ff0219169083600181111561050957610508611840565b5b02179055509050508391505092915050565b8273ffffffffffffffffffffffffffffffffffffffff166370a08231836040518263ffffffff1660e01b8152600401610554919061192d565b602060405180830381865afa158015610571573d6000803e3d6000fd5b505050506040513d601f19601f82011682018060405250810190610595919061195d565b81106105d6576040517f08c379a00000000000000000000000000000000000000000000000000000000081526004016105cd906119fc565b60405180910390fd5b60008111610619576040517f08c379a000000000000000000000000000000000000000000000000000000000815260040161061090611a68565b60405180910390fd5b6000600a6000868152602001908152602001600020604051806040016040529081600082015481526020016001820160009054906101000a900460ff16600181111561066857610667611840565b5b600181111561067a57610679611840565b5b8152505090506000600181111561069457610693611840565b5b816020015160018111156106ab576106aa611840565b5b036106f55760015482146106f4576040517f08c379a00000000000000000000000000000000000000000000000000000000081526004016106eb90611b20565b60405180910390fd5b5b8373ffffffffffffffffffffffffffffffffffffffff166323b872dd8430856040518463ffffffff1660e01b815260040161073293929190611b40565b6020604051808303816000875af1158015610751573d6000803e3d6000fd5b505050506040513d601f19601f820116820180604052508101906107759190611baf565b6107b4576040517f08c379a00000000000000000000000000000000000000000000000000000000081526004016107ab90611c28565b60405180910390fd5b818373ffffffffffffffffffffffffffffffffffffffff16867f76054ee39830b55eeb0599e7031fba9c97b2df9b05f19c99bccecc1b057ad14e6040516107fa90611c94565b60405180910390a46006600081548092919061081590611ce3565b919050555060006006549050600e600087815260200190815260200160002060008573ffffffffffffffffffffffffffffffffffffffff1673ffffffffffffffffffffffffffffffffffffffff16815260200190815260200160002081908060018154018082558091505060019003906000526020600020016000909190919091505582600f600088815260200190815260200160002060008673ffffffffffffffffffffffffffffffffffffffff1673ffffffffffffffffffffffffffffffffffffffff16815260200190815260200160002060008381526020019081526020016000208190555042600c600088815260200190815260200160002060008673ffffffffffffffffffffffffffffffffffffffff1673ffffffffffffffffffffffffffffffffffffffff168152602001908152602001600020600083815260200190815260200160002081905550600d600087815260200190815260200160002060008573ffffffffffffffffffffffffffffffffffffffff1673ffffffffffffffffffffffffffffffffffffffff16815260200190815260200160002060008154809291906109c590611ce3565b919050555082600b60008673ffffffffffffffffffffffffffffffffffffffff1673ffffffffffffffffffffffffffffffffffffffff1681526020019081526020016000206000828254610a199190611d2b565b92505081905550505050505050565b84838360008054600c600086815260200190815260200160002060008573ffffffffffffffffffffffffffffffffffffffff1673ffffffffffffffffffffffffffffffffffffffff168152602001908152602001600020600084815260200190815260200160002054610a9b9190611d2b565b905042811115610ae0576040517f08c379a0000000000000000000000000000000000000000000000000000000008152600401610ad790611e1d565b60405180910390fd5b8887876000600f600085815260200190815260200160002060008473ffffffffffffffffffffffffffffffffffffffff1673ffffffffffffffffffffffffffffffffffffffff16815260200190815260200160002060008381526020019081526020016000205411610b87576040517f08c379a0000000000000000000000000000000000000000000000000000000008152600401610b7e90611efb565b60405180910390fd5b8a73ffffffffffffffffffffffffffffffffffffffff1663a9059cbb8b8a6040518363ffffffff1660e01b8152600401610bc2929190611f1b565b6020604051808303816000875af1158015610be1573d6000803e3d6000fd5b505050506040513d601f19601f82011682018060405250810190610c059190611baf565b610c44576040517f08c379a0000000000000000000000000000000000000000000000000000000008152600401610c3b90611fdc565b60405180910390fd5b878a73ffffffffffffffffffffffffffffffffffffffff168d7f76054ee39830b55eeb0599e7031fba9c97b2df9b05f19c99bccecc1b057ad14e604051610c8a90612094565b60405180910390a4600560009054906101000a900473ffffffffffffffffffffffffffffffffffffffff1673ffffffffffffffffffffffffffffffffffffffff1663a9059cbb8b6002546040518363ffffffff1660e01b8152600401610cf1929190611f1b565b6020604051808303816000875af1158015610d10573d6000803e3d6000fd5b505050506040513d601f19601f82011682018060405250810190610d349190611baf565b610d73576040517f08c379a0000000000000000000000000000000000000000000000000000000008152600401610d6a9061214c565b60405180910390fd5b6002548a73ffffffffffffffffffffffffffffffffffffffff168d7f76054ee39830b55eeb0599e7031fba9c97b2df9b05f19c99bccecc1b057ad14e604051610dbb906121de565b60405180910390a4610dcf8c8b8b8b61126a565b505050505050505050505050565b83828260008054600c600086815260200190815260200160002060008573ffffffffffffffffffffffffffffffffffffffff1673ffffffffffffffffffffffffffffffffffffffff168152602001908152602001600020600084815260200190815260200160002054610e509190611d2b565b905042811115610e95576040517f08c379a0000000000000000000000000000000000000000000000000000000008152600401610e8c90611e1d565b60405180910390fd5b8786866000600f600085815260200190815260200160002060008473ffffffffffffffffffffffffffffffffffffffff1673ffffffffffffffffffffffffffffffffffffffff16815260200190815260200160002060008381526020019081526020016000205411610f3c576040517f08c379a0000000000000000000000000000000000000000000000000000000008152600401610f3390611efb565b60405180910390fd5b6000600f60008d815260200190815260200160002060008b73ffffffffffffffffffffffffffffffffffffffff1673ffffffffffffffffffffffffffffffffffffffff16815260200190815260200160002060008a81526020019081526020016000205490506000600c60008e815260200190815260200160002060008c73ffffffffffffffffffffffffffffffffffffffff1673ffffffffffffffffffffffffffffffffffffffff16815260200190815260200160002060008b81526020019081526020016000205490506000611014838361159e565b90508c73ffffffffffffffffffffffffffffffffffffffff1663a9059cbb8d856040518363ffffffff1660e01b8152600401611051929190611f1b565b6020604051808303816000875af1158015611070573d6000803e3d6000fd5b505050506040513d601f19601f820116820180604052508101906110949190611baf565b6110d3576040517f08c379a00000000000000000000000000000000000000000000000000000000081526004016110ca90612296565b60405180910390fd5b828c73ffffffffffffffffffffffffffffffffffffffff168f7f76054ee39830b55eeb0599e7031fba9c97b2df9b05f19c99bccecc1b057ad14e6040516111199061234e565b60405180910390a4600560009054906101000a900473ffffffffffffffffffffffffffffffffffffffff1673ffffffffffffffffffffffffffffffffffffffff1663a9059cbb8d836040518363ffffffff1660e01b815260040161117e929190611f1b565b6020604051808303816000875af115801561119d573d6000803e3d6000fd5b505050506040513d601f19601f820116820180604052508101906111c19190611baf565b611200576040517f08c379a00000000000000000000000000000000000000000000000000000000081526004016111f790612406565b60405180910390fd5b808c73ffffffffffffffffffffffffffffffffffffffff168f7f76054ee39830b55eeb0599e7031fba9c97b2df9b05f19c99bccecc1b057ad14e60405161124690612498565b60405180910390a461125a8e8d8d8661126a565b5050505050505050505050505050565b60005b600e600086815260200190815260200160002060008573ffffffffffffffffffffffffffffffffffffffff1673ffffffffffffffffffffffffffffffffffffffff168152602001908152602001600020805490508110156113bf57600e600086815260200190815260200160002060008573ffffffffffffffffffffffffffffffffffffffff1673ffffffffffffffffffffffffffffffffffffffff168152602001908152602001600020818154811061132a576113296124b8565b5b906000526020600020015483036113ae576000600e600087815260200190815260200160002060008673ffffffffffffffffffffffffffffffffffffffff1673ffffffffffffffffffffffffffffffffffffffff168152602001908152602001600020828154811061139f5761139e6124b8565b5b90600052602060002001819055505b806113b890611ce3565b905061126d565b506000600f600086815260200190815260200160002060008573ffffffffffffffffffffffffffffffffffffffff1673ffffffffffffffffffffffffffffffffffffffff16815260200190815260200160002060008481526020019081526020016000208190555080600b60008573ffffffffffffffffffffffffffffffffffffffff1673ffffffffffffffffffffffffffffffffffffffff168152602001908152602001600020600082825461147691906124e7565b925050819055506000600c600086815260200190815260200160002060008573ffffffffffffffffffffffffffffffffffffffff1673ffffffffffffffffffffffffffffffffffffffff168152602001908152602001600020600084815260200190815260200160002081905550600d600085815260200190815260200160002060008473ffffffffffffffffffffffffffffffffffffffff1673ffffffffffffffffffffffffffffffffffffffff16815260200190815260200160002060008154809291906115459061251b565b9190505550808373ffffffffffffffffffffffffffffffffffffffff16857f76054ee39830b55eeb0599e7031fba9c97b2df9b05f19c99bccecc1b057ad14e604051611590906125dc565b60405180910390a450505050565b60008082426115ad91906124e7565b9050600060075482101580156115c4575060085482105b156115dc5780806115d490611ce3565b91505061162d565b60085482101580156115ef575060095482105b15611608576002816116019190611d2b565b905061162c565b6009548211156116265760038161161f9190611d2b565b905061162b565b600090505b5b5b60008160035461163d9190611d2b565b90506064868261164d91906125fc565b611657919061266d565b935050505092915050565b6040518060400160405280600081526020016000600181111561168857611687611840565b5b81525090565b6000819050919050565b6116a18161168e565b82525050565b60006020820190506116bc6000830184611698565b92915050565b600080fd5b6116d08161168e565b81146116db57600080fd5b50565b6000813590506116ed816116c7565b92915050565b6000806040838503121561170a576117096116c2565b5b6000611718858286016116de565b9250506020611729858286016116de565b9150509250929050565b600060208284031215611749576117486116c2565b5b6000611757848285016116de565b91505092915050565b600081519050919050565b600082825260208201905092915050565b6000819050602082019050919050565b6117958161168e565b82525050565b60006117a7838361178c565b60208301905092915050565b6000602082019050919050565b60006117cb82611760565b6117d5818561176b565b93506117e08361177c565b8060005b838110156118115781516117f8888261179b565b9750611803836117b3565b9250506001810190506117e4565b5085935050505092915050565b6000602082019050818103600083015261183881846117c0565b905092915050565b7f4e487b7100000000000000000000000000000000000000000000000000000000600052602160045260246000fd5b600082825260208201905092915050565b7f506f6f6c20646f65736e27742065786973742100000000000000000000000000600082015250565b60006118b660138361186f565b91506118c182611880565b602082019050919050565b600060208201905081810360008301526118e5816118a9565b9050919050565b600073ffffffffffffffffffffffffffffffffffffffff82169050919050565b6000611917826118ec565b9050919050565b6119278161190c565b82525050565b6000602082019050611942600083018461191e565b92915050565b600081519050611957816116c7565b92915050565b600060208284031215611973576119726116c2565b5b600061198184828501611948565b91505092915050565b7f5374616b696e6720616d6f756e7420697320657863656564696e67207573657260008201527f2042616c616e6365210000000000000000000000000000000000000000000000602082015250565b60006119e660298361186f565b91506119f18261198a565b604082019050919050565b60006020820190508181036000830152611a15816119d9565b9050919050565b7f6e6f7420656e6f75676820616d6f756e7420666f72207374616b696e67212100600082015250565b6000611a52601f8361186f565b9150611a5d82611a1c565b602082019050919050565b60006020820190508181036000830152611a8181611a45565b9050919050565b7f4669786564205374616b696e673d3e20496e617070726f70696174652073746160008201527f6b696e6720616d6f756e742c20616d6f756e742073686f756c6420626520657860208201527f6163746c7920657175616c20746f2073706563696669656420616d6f756e7421604082015250565b6000611b0a60608361186f565b9150611b1582611a88565b606082019050919050565b60006020820190508181036000830152611b3981611afd565b9050919050565b6000606082019050611b55600083018661191e565b611b62602083018561191e565b611b6f6040830184611698565b949350505050565b60008115159050919050565b611b8c81611b77565b8114611b9757600080fd5b50565b600081519050611ba981611b83565b92915050565b600060208284031215611bc557611bc46116c2565b5b6000611bd384828501611b9a565b91505092915050565b7f556e73756363657366756c6c205374616b696e67210000000000000000000000600082015250565b6000611c1260158361186f565b9150611c1d82611bdc565b602082019050919050565b60006020820190508181036000830152611c4181611c05565b9050919050565b7f7573657220686173207374616b6564206d6f6e657920696e206120706f6f6c21600082015250565b6000611c7e60208361186f565b9150611c8982611c48565b602082019050919050565b60006020820190508181036000830152611cad81611c71565b9050919050565b7f4e487b7100000000000000000000000000000000000000000000000000000000600052601160045260246000fd5b6000611cee8261168e565b91507fffffffffffffffffffffffffffffffffffffffffffffffffffffffffffffffff8203611d2057611d1f611cb4565b5b600182019050919050565b6000611d368261168e565b9150611d418361168e565b9250828201905080821115611d5957611d58611cb4565b5b92915050565b7f4669786564205374636b696e67203d3e20506c65617365207761697420666f7260008201527f20746865207374616b696e672074696d6520746f2067657420656e6420616e6460208201527f207468656e2074727920616761696e20746f20636c61696d20796f757220726560408201527f7761726421000000000000000000000000000000000000000000000000000000606082015250565b6000611e0760658361186f565b9150611e1282611d5f565b608082019050919050565b60006020820190508181036000830152611e3681611dfa565b9050919050565b7f5573657220686173206e6f74207374616b656420696e20666972737420706c6160008201527f636520746f207265636569766520616e7920726577617264206f7220616c726560208201527f6164792072656365697665642074686520617761726420666f7220746861742060408201527f706172746963756c6172207374616b696e672100000000000000000000000000606082015250565b6000611ee560738361186f565b9150611ef082611e3d565b608082019050919050565b60006020820190508181036000830152611f1481611ed8565b9050919050565b6000604082019050611f30600083018561191e565b611f3d6020830184611698565b9392505050565b7f4669786564205374616b696e67203d3e20536f6d657468696e672077656e742060008201527f77726f6e67207768696c6520726566756e64696e6720746865207374616b656460208201527f20616d6f756e7421000000000000000000000000000000000000000000000000604082015250565b6000611fc660488361186f565b9150611fd182611f44565b606082019050919050565b60006020820190508181036000830152611ff581611fb9565b9050919050565b7f4669786564205374616b696e67203d3e2055736572206861732077697468647260008201527f6177616e20746865207374616b656420616d6f756e742073756363657373667560208201527f6c6c792100000000000000000000000000000000000000000000000000000000604082015250565b600061207e60448361186f565b915061208982611ffc565b606082019050919050565b600060208201905081810360008301526120ad81612071565b9050919050565b7f4669786564205374616b696e67203d3e20536f6d657468696e672077656e742060008201527f77726f6e67207768696c652073656e64696e672074686520726577617264207460208201527f6f207374616b6572210000000000000000000000000000000000000000000000604082015250565b600061213660498361186f565b9150612141826120b4565b606082019050919050565b6000602082019050818103600083015261216581612129565b9050919050565b7f4669786564205374616b696e67203d3e2055736572206861732073756363657360008201527f7366756c6c7920726563656976656420617761726420746f6b656e2100000000602082015250565b60006121c8603c8361186f565b91506121d38261216c565b604082019050919050565b600060208201905081810360008301526121f7816121bb565b9050919050565b7f466c657869626c65205374616b696e67203d3e20536f6d657468696e6720776560008201527f6e742077726f6e67207768696c6520726566756e64696e67207468652073746160208201527f6b656420616d6f756e7421000000000000000000000000000000000000000000604082015250565b6000612280604b8361186f565b915061228b826121fe565b606082019050919050565b600060208201905081810360008301526122af81612273565b9050919050565b7f466c657869626c65205374616b696e67203d3e2055736572206861732077697460008201527f6864726177616e20746865207374616b656420616d6f756e742073756363657360208201527f7366756c6c792100000000000000000000000000000000000000000000000000604082015250565b600061233860478361186f565b9150612343826122b6565b606082019050919050565b600060208201905081810360008301526123678161232b565b9050919050565b7f466c657869626c65205374616b696e67203d3e20536f6d657468696e6720776560008201527f6e742077726f6e67207768696c652073656e64696e672074686520726577617260208201527f6420746f207374616b6572210000000000000000000000000000000000000000604082015250565b60006123f0604c8361186f565b91506123fb8261236e565b606082019050919050565b6000602082019050818103600083015261241f816123e3565b9050919050565b7f466c657869626c65205374616b696e67203d3e2055736572206861732073756360008201527f6365737366756c6c7920726563656976656420617761726420746f6b656e2100602082015250565b6000612482603f8361186f565b915061248d82612426565b604082019050919050565b600060208201905081810360008301526124b181612475565b9050919050565b7f4e487b7100000000000000000000000000000000000000000000000000000000600052603260045260246000fd5b60006124f28261168e565b91506124fd8361168e565b925082820390508181111561251557612514611cb4565b5b92915050565b60006125268261168e565b91506000820361253957612538611cb4565b5b600182039050919050565b7f757365722068617320756e7374616b656420746865206d656e74696f6e65642060008201527f616d6f756e742066726f6d206120706f6f6c20616e642068617320726563656960208201527f7665642072657761726421000000000000000000000000000000000000000000604082015250565b60006125c6604b8361186f565b91506125d182612544565b606082019050919050565b600060208201905081810360008301526125f5816125b9565b9050919050565b60006126078261168e565b91506126128361168e565b92508282026126208161168e565b9150828204841483151761263757612636611cb4565b5b5092915050565b7f4e487b7100000000000000000000000000000000000000000000000000000000600052601260045260246000fd5b60006126788261168e565b91506126838361168e565b9250826126935761269261263e565b5b82820490509291505056fea2646970667358221220c9879fa713db4844c5dd426265342e6c1d8aeeb03f9ae29132b1686f51e6f7fe64736f6c63430008110033",
  "linkReferences": {},
  "deployedLinkReferences": {}
}