{
  "_format": "hh-sol-artifact-1",
  "contractName": "stakingContract",
  "sourceName": "contracts/staking _contract.sol",
  "abi": [
    {
      "inputs": [
        {
          "internalType": "address[]",
          "name": "pool_addresses",
          "type": "address[]"
        },
        {
          "internalType": "address",
          "name": "reward_contract",
          "type": "address"
        },
        {
          "internalType": "uint256",
          "name": "reward_percentage",
          "type": "uint256"
        },
        {
          "internalType": "uint256",
          "name": "time_lock_in_seconds",
          "type": "uint256"
        }
      ],
      "stateMutability": "nonpayable",
      "type": "constructor"
    },
    {
      "anonymous": false,
      "inputs": [
        {
          "indexed": true,
          "internalType": "uint256",
          "name": "_pool",
          "type": "uint256"
        },
        {
          "indexed": true,
          "internalType": "address",
          "name": "_staker",
          "type": "address"
        },
        {
          "indexed": true,
          "internalType": "uint256",
          "name": "_amount",
          "type": "uint256"
        },
        {
          "indexed": false,
          "internalType": "string",
          "name": "_message",
          "type": "string"
        }
      ],
      "name": "staking_events",
      "type": "event"
    },
    {
      "inputs": [],
      "name": "TimeLock_on_fixed_pool",
      "outputs": [
        {
          "internalType": "uint256",
          "name": "",
          "type": "uint256"
        }
      ],
      "stateMutability": "view",
      "type": "function"
    },
    {
      "inputs": [
        {
          "internalType": "uint256",
          "name": "_pool",
          "type": "uint256"
        },
        {
          "internalType": "uint256",
          "name": "_index",
          "type": "uint256"
        }
      ],
      "name": "amount_staked",
      "outputs": [
        {
          "internalType": "uint256",
          "name": "",
          "type": "uint256"
        }
      ],
      "stateMutability": "view",
      "type": "function"
    },
    {
      "inputs": [
        {
          "internalType": "uint256",
          "name": "_pool",
          "type": "uint256"
        },
        {
          "internalType": "uint256",
          "name": "_index",
          "type": "uint256"
        }
      ],
      "name": "reward",
      "outputs": [],
      "stateMutability": "nonpayable",
      "type": "function"
    },
    {
      "inputs": [
        {
          "internalType": "uint256",
          "name": "_pool",
          "type": "uint256"
        }
      ],
      "name": "staker_indexex_per_pool",
      "outputs": [
        {
          "internalType": "uint256[]",
          "name": "",
          "type": "uint256[]"
        }
      ],
      "stateMutability": "view",
      "type": "function"
    },
    {
      "inputs": [
        {
          "internalType": "uint256",
          "name": "_pool",
          "type": "uint256"
        },
        {
          "internalType": "uint256",
          "name": "amount",
          "type": "uint256"
        }
      ],
      "name": "staking",
      "outputs": [],
      "stateMutability": "nonpayable",
      "type": "function"
    },
    {
      "inputs": [],
      "name": "staking_amount_on_fixed_pool",
      "outputs": [
        {
          "internalType": "uint256",
          "name": "",
          "type": "uint256"
        }
      ],
      "stateMutability": "view",
      "type": "function"
    },
    {
      "inputs": [
        {
          "internalType": "uint256",
          "name": "_pool",
          "type": "uint256"
        }
      ],
      "name": "staking_count_per_pool",
      "outputs": [
        {
          "internalType": "uint256",
          "name": "",
          "type": "uint256"
        }
      ],
      "stateMutability": "view",
      "type": "function"
    },
    {
      "inputs": [],
      "name": "staking_reward_on_fixed_pool",
      "outputs": [
        {
          "internalType": "uint256",
          "name": "",
          "type": "uint256"
        }
      ],
      "stateMutability": "view",
      "type": "function"
    },
    {
      "inputs": [],
      "name": "time_now",
      "outputs": [
        {
          "internalType": "uint256",
          "name": "",
          "type": "uint256"
        }
      ],
      "stateMutability": "view",
      "type": "function"
    },
    {
      "inputs": [
        {
          "internalType": "uint256",
          "name": "_pool",
          "type": "uint256"
        },
        {
          "internalType": "uint256",
          "name": "_index",
          "type": "uint256"
        }
      ],
      "name": "time_when_reward_will_receive",
      "outputs": [
        {
          "internalType": "bool",
          "name": "",
          "type": "bool"
        }
      ],
      "stateMutability": "view",
      "type": "function"
    },
    {
      "inputs": [
        {
          "internalType": "uint256",
          "name": "_pool",
          "type": "uint256"
        },
        {
          "internalType": "uint256",
          "name": "_index",
          "type": "uint256"
        }
      ],
      "name": "time_when_staked",
      "outputs": [
        {
          "internalType": "uint256",
          "name": "",
          "type": "uint256"
        }
      ],
      "stateMutability": "view",
      "type": "function"
    },
    {
      "inputs": [],
      "name": "total_staking_all_pools",
      "outputs": [
        {
          "internalType": "uint256",
          "name": "",
          "type": "uint256"
        }
      ],
      "stateMutability": "view",
      "type": "function"
    }
  ],
  "bytecode": "0x6080604052670de0b6b3a764000060015567016345785d8a00006002553480156200002957600080fd5b5060405162002dc738038062002dc783398181016040528101906200004f9190620003b1565b60005b8451811015620000ef5784818151811062000072576200007162000442565b5b6020026020010151600c60006001846200008d9190620004a0565b815260200190815260200160002060006101000a81548173ffffffffffffffffffffffffffffffffffffffff021916908373ffffffffffffffffffffffffffffffffffffffff1602179055508080620000e690620004db565b91505062000052565b5082600b60006101000a81548173ffffffffffffffffffffffffffffffffffffffff021916908373ffffffffffffffffffffffffffffffffffffffff16021790555081600381905550806000819055506005816200014e919062000528565b600e81905550600a8162000163919062000528565b600f81905550600f8162000178919062000528565b6010819055505050505062000573565b6000604051905090565b600080fd5b600080fd5b600080fd5b6000601f19601f8301169050919050565b7f4e487b7100000000000000000000000000000000000000000000000000000000600052604160045260246000fd5b620001ec82620001a1565b810181811067ffffffffffffffff821117156200020e576200020d620001b2565b5b80604052505050565b60006200022362000188565b9050620002318282620001e1565b919050565b600067ffffffffffffffff821115620002545762000253620001b2565b5b602082029050602081019050919050565b600080fd5b600073ffffffffffffffffffffffffffffffffffffffff82169050919050565b600062000297826200026a565b9050919050565b620002a9816200028a565b8114620002b557600080fd5b50565b600081519050620002c9816200029e565b92915050565b6000620002e6620002e08462000236565b62000217565b905080838252602082019050602084028301858111156200030c576200030b62000265565b5b835b81811015620003395780620003248882620002b8565b8452602084019350506020810190506200030e565b5050509392505050565b600082601f8301126200035b576200035a6200019c565b5b81516200036d848260208601620002cf565b91505092915050565b6000819050919050565b6200038b8162000376565b81146200039757600080fd5b50565b600081519050620003ab8162000380565b92915050565b60008060008060808587031215620003ce57620003cd62000192565b5b600085015167ffffffffffffffff811115620003ef57620003ee62000197565b5b620003fd8782880162000343565b94505060206200041087828801620002b8565b935050604062000423878288016200039a565b925050606062000436878288016200039a565b91505092959194509250565b7f4e487b7100000000000000000000000000000000000000000000000000000000600052603260045260246000fd5b7f4e487b7100000000000000000000000000000000000000000000000000000000600052601160045260246000fd5b6000620004ad8262000376565b9150620004ba8362000376565b9250828201905080821115620004d557620004d462000471565b5b92915050565b6000620004e88262000376565b91507fffffffffffffffffffffffffffffffffffffffffffffffffffffffffffffffff82036200051d576200051c62000471565b5b600182019050919050565b6000620005358262000376565b9150620005428362000376565b9250828202620005528162000376565b915082820484148315176200056c576200056b62000471565b5b5092915050565b61284480620005836000396000f3fe608060405234801561001057600080fd5b50600436106100b45760003560e01c8063916e967f11610071578063916e967f1461018f578063a4fa8d57146101ad578063c6697034146101c9578063d3338575146101f9578063e506fc3b14610229578063fa2fa84614610247576100b4565b80630cfcb815146100b9578063185e5344146100d75780631a171c03146100f55780632e9f411e146101255780633db7ff9414610141578063626dff2514610171575b600080fd5b6100c1610277565b6040516100ce919061181c565b60405180910390f35b6100df610280565b6040516100ec919061181c565b60405180910390f35b61010f600480360381019061010a9190611868565b61028a565b60405161011c919061181c565b60405180910390f35b61013f600480360381019061013a9190611895565b6102e4565b005b61015b60048036038101906101569190611895565b61037d565b604051610168919061181c565b60405180910390f35b6101796103e9565b604051610186919061181c565b60405180910390f35b610197610430565b6040516101a4919061181c565b60405180910390f35b6101c760048036038101906101c29190611895565b610438565b005b6101e360048036038101906101de9190611868565b610563565b6040516101f09190611993565b60405180910390f35b610213600480360381019061020e9190611895565b61060b565b60405161022091906119d0565b60405180910390f35b61023161069e565b60405161023e919061181c565b60405180910390f35b610261600480360381019061025c9190611895565b6106a8565b60405161026e919061181c565b60405180910390f35b60008054905090565b6000600154905090565b60006013600083815260200190815260200160002060003373ffffffffffffffffffffffffffffffffffffffff1673ffffffffffffffffffffffffffffffffffffffff168152602001908152602001600020549050919050565b60003390508260001080156102fa575060068311155b610339576040517f08c379a000000000000000000000000000000000000000000000000000000000815260040161033090611a48565b60405180910390fd5b61037883600c600086815260200190815260200160002060009054906101000a900473ffffffffffffffffffffffffffffffffffffffff168385610714565b505050565b60006012600084815260200190815260200160002060003373ffffffffffffffffffffffffffffffffffffffff1673ffffffffffffffffffffffffffffffffffffffff168152602001908152602001600020600083815260200190815260200160002054905092915050565b6000601160003373ffffffffffffffffffffffffffffffffffffffff1673ffffffffffffffffffffffffffffffffffffffff16815260200190815260200160002054905090565b600042905090565b60003390506000600154905060018414806104535750600284145b8061045e5750600384145b156104a8576104a384600c600087815260200190815260200160002060009054906101000a900473ffffffffffffffffffffffffffffffffffffffff16848685610bb4565b61055d565b60048414806104b75750600584145b806104c25750600684145b1561050b5761050684600c600087815260200190815260200160002060009054906101000a900473ffffffffffffffffffffffffffffffffffffffff168486610f70565b61055c565b83600010801561051c575060068411155b61055b576040517f08c379a000000000000000000000000000000000000000000000000000000000815260040161055290611a48565b60405180910390fd5b5b5b50505050565b60606014600083815260200190815260200160002060003373ffffffffffffffffffffffffffffffffffffffff1673ffffffffffffffffffffffffffffffffffffffff1681526020019081526020016000208054806020026020016040519081016040528092919081815260200182805480156105ff57602002820191906000526020600020905b8154815260200190600101908083116105eb575b50505050509050919050565b6000610615610430565b6000546012600086815260200190815260200160002060003373ffffffffffffffffffffffffffffffffffffffff1673ffffffffffffffffffffffffffffffffffffffff1681526020019081526020016000206000858152602001908152602001600020546106849190611a97565b11156106935760009050610698565b600190505b92915050565b6000600254905090565b60006015600084815260200190815260200160002060003373ffffffffffffffffffffffffffffffffffffffff1673ffffffffffffffffffffffffffffffffffffffff168152602001908152602001600020600083815260200190815260200160002054905092915050565b8382828486858173ffffffffffffffffffffffffffffffffffffffff166370a08231846040518263ffffffff1660e01b81526004016107539190611b0c565b602060405180830381865afa158015610770573d6000803e3d6000fd5b505050506040513d601f19601f820116820180604052508101906107949190611b3c565b81106107d5576040517f08c379a00000000000000000000000000000000000000000000000000000000081526004016107cc90611bdb565b60405180910390fd5b60008111610818576040517f08c379a000000000000000000000000000000000000000000000000000000000815260040161080f90611c47565b60405180910390fd5b60018a1480610827575060028a145b80610832575060038a145b1561087c57600154871461087b576040517f08c379a000000000000000000000000000000000000000000000000000000000815260040161087290611cff565b60405180910390fd5b5b8873ffffffffffffffffffffffffffffffffffffffff166323b872dd89308a6040518463ffffffff1660e01b81526004016108b993929190611d1f565b6020604051808303816000875af11580156108d8573d6000803e3d6000fd5b505050506040513d601f19601f820116820180604052508101906108fc9190611d82565b61093b576040517f08c379a000000000000000000000000000000000000000000000000000000000815260040161093290611dfb565b60405180910390fd5b868873ffffffffffffffffffffffffffffffffffffffff168b7f76054ee39830b55eeb0599e7031fba9c97b2df9b05f19c99bccecc1b057ad14e60405161098190611e67565b60405180910390a4505050600d600081548092919061099f90611e87565b91905055506000600d5490506014600085815260200190815260200160002060008473ffffffffffffffffffffffffffffffffffffffff1673ffffffffffffffffffffffffffffffffffffffff168152602001908152602001600020819080600181540180825580915050600190039060005260206000200160009091909190915055816015600086815260200190815260200160002060008573ffffffffffffffffffffffffffffffffffffffff1673ffffffffffffffffffffffffffffffffffffffff168152602001908152602001600020600083815260200190815260200160002081905550426012600086815260200190815260200160002060008573ffffffffffffffffffffffffffffffffffffffff1673ffffffffffffffffffffffffffffffffffffffff1681526020019081526020016000206000838152602001908152602001600020819055506013600085815260200190815260200160002060008473ffffffffffffffffffffffffffffffffffffffff1673ffffffffffffffffffffffffffffffffffffffff1681526020019081526020016000206000815480929190610b4f90611e87565b919050555081601160008573ffffffffffffffffffffffffffffffffffffffff1673ffffffffffffffffffffffffffffffffffffffff1681526020019081526020016000206000828254610ba39190611a97565b925050819055505050505050505050565b848383600080546012600086815260200190815260200160002060008573ffffffffffffffffffffffffffffffffffffffff1673ffffffffffffffffffffffffffffffffffffffff168152602001908152602001600020600084815260200190815260200160002054610c279190611a97565b9050610c31610430565b811115610c73576040517f08c379a0000000000000000000000000000000000000000000000000000000008152600401610c6a90611f8d565b60405180910390fd5b88878760006015600085815260200190815260200160002060008473ffffffffffffffffffffffffffffffffffffffff1673ffffffffffffffffffffffffffffffffffffffff16815260200190815260200160002060008381526020019081526020016000205411610d1a576040517f08c379a0000000000000000000000000000000000000000000000000000000008152600401610d119061206b565b60405180910390fd5b8a73ffffffffffffffffffffffffffffffffffffffff1663a9059cbb8b8a6040518363ffffffff1660e01b8152600401610d5592919061208b565b6020604051808303816000875af1158015610d74573d6000803e3d6000fd5b505050506040513d601f19601f82011682018060405250810190610d989190611d82565b610dd7576040517f08c379a0000000000000000000000000000000000000000000000000000000008152600401610dce9061214c565b60405180910390fd5b878a73ffffffffffffffffffffffffffffffffffffffff168d7f76054ee39830b55eeb0599e7031fba9c97b2df9b05f19c99bccecc1b057ad14e604051610e1d90612204565b60405180910390a4600b60009054906101000a900473ffffffffffffffffffffffffffffffffffffffff1673ffffffffffffffffffffffffffffffffffffffff1663a9059cbb8b6002546040518363ffffffff1660e01b8152600401610e8492919061208b565b6020604051808303816000875af1158015610ea3573d6000803e3d6000fd5b505050506040513d601f19601f82011682018060405250810190610ec79190611d82565b610f06576040517f08c379a0000000000000000000000000000000000000000000000000000000008152600401610efd906122bc565b60405180910390fd5b6002548a73ffffffffffffffffffffffffffffffffffffffff168d7f76054ee39830b55eeb0599e7031fba9c97b2df9b05f19c99bccecc1b057ad14e604051610f4e9061234e565b60405180910390a4610f628c8b8b8b611404565b505050505050505050505050565b838282600080546012600086815260200190815260200160002060008573ffffffffffffffffffffffffffffffffffffffff1673ffffffffffffffffffffffffffffffffffffffff168152602001908152602001600020600084815260200190815260200160002054610fe39190611a97565b9050610fed610430565b81111561102f576040517f08c379a000000000000000000000000000000000000000000000000000000000815260040161102690611f8d565b60405180910390fd5b87868660006015600085815260200190815260200160002060008473ffffffffffffffffffffffffffffffffffffffff1673ffffffffffffffffffffffffffffffffffffffff168152602001908152602001600020600083815260200190815260200160002054116110d6576040517f08c379a00000000000000000000000000000000000000000000000000000000081526004016110cd9061206b565b60405180910390fd5b6000601560008d815260200190815260200160002060008b73ffffffffffffffffffffffffffffffffffffffff1673ffffffffffffffffffffffffffffffffffffffff16815260200190815260200160002060008a81526020019081526020016000205490506000601260008e815260200190815260200160002060008c73ffffffffffffffffffffffffffffffffffffffff1673ffffffffffffffffffffffffffffffffffffffff16815260200190815260200160002060008b815260200190815260200160002054905060006111ae8383611738565b90508c73ffffffffffffffffffffffffffffffffffffffff1663a9059cbb8d856040518363ffffffff1660e01b81526004016111eb92919061208b565b6020604051808303816000875af115801561120a573d6000803e3d6000fd5b505050506040513d601f19601f8201168201806040525081019061122e9190611d82565b61126d576040517f08c379a000000000000000000000000000000000000000000000000000000000815260040161126490612406565b60405180910390fd5b828c73ffffffffffffffffffffffffffffffffffffffff168f7f76054ee39830b55eeb0599e7031fba9c97b2df9b05f19c99bccecc1b057ad14e6040516112b3906124be565b60405180910390a4600b60009054906101000a900473ffffffffffffffffffffffffffffffffffffffff1673ffffffffffffffffffffffffffffffffffffffff1663a9059cbb8d836040518363ffffffff1660e01b815260040161131892919061208b565b6020604051808303816000875af1158015611337573d6000803e3d6000fd5b505050506040513d601f19601f8201168201806040525081019061135b9190611d82565b61139a576040517f08c379a000000000000000000000000000000000000000000000000000000000815260040161139190612576565b60405180910390fd5b808c73ffffffffffffffffffffffffffffffffffffffff168f7f76054ee39830b55eeb0599e7031fba9c97b2df9b05f19c99bccecc1b057ad14e6040516113e090612608565b60405180910390a46113f48e8d8d86611404565b5050505050505050505050505050565b60005b6014600086815260200190815260200160002060008573ffffffffffffffffffffffffffffffffffffffff1673ffffffffffffffffffffffffffffffffffffffff16815260200190815260200160002080549050811015611559576014600086815260200190815260200160002060008573ffffffffffffffffffffffffffffffffffffffff1673ffffffffffffffffffffffffffffffffffffffff16815260200190815260200160002081815481106114c4576114c3612628565b5b906000526020600020015483036115485760006014600087815260200190815260200160002060008673ffffffffffffffffffffffffffffffffffffffff1673ffffffffffffffffffffffffffffffffffffffff168152602001908152602001600020828154811061153957611538612628565b5b90600052602060002001819055505b8061155290611e87565b9050611407565b5060006015600086815260200190815260200160002060008573ffffffffffffffffffffffffffffffffffffffff1673ffffffffffffffffffffffffffffffffffffffff16815260200190815260200160002060008481526020019081526020016000208190555080601160008573ffffffffffffffffffffffffffffffffffffffff1673ffffffffffffffffffffffffffffffffffffffff16815260200190815260200160002060008282546116109190612657565b9250508190555060006012600086815260200190815260200160002060008573ffffffffffffffffffffffffffffffffffffffff1673ffffffffffffffffffffffffffffffffffffffff1681526020019081526020016000206000848152602001908152602001600020819055506013600085815260200190815260200160002060008473ffffffffffffffffffffffffffffffffffffffff1673ffffffffffffffffffffffffffffffffffffffff16815260200190815260200160002060008154809291906116df9061268b565b9190505550808373ffffffffffffffffffffffffffffffffffffffff16857f76054ee39830b55eeb0599e7031fba9c97b2df9b05f19c99bccecc1b057ad14e60405161172a9061274c565b60405180910390a450505050565b60008082611744610430565b61174e9190612657565b90506000600e5482101580156117655750600f5482105b1561177d57808061177590611e87565b9150506117ce565b600f548210158015611790575060105482105b156117a9576002816117a29190611a97565b90506117cd565b6010548211156117c7576003816117c09190611a97565b90506117cc565b600090505b5b5b6000816003546117de9190611a97565b9050606486826117ee919061276c565b6117f891906127dd565b935050505092915050565b6000819050919050565b61181681611803565b82525050565b6000602082019050611831600083018461180d565b92915050565b600080fd5b61184581611803565b811461185057600080fd5b50565b6000813590506118628161183c565b92915050565b60006020828403121561187e5761187d611837565b5b600061188c84828501611853565b91505092915050565b600080604083850312156118ac576118ab611837565b5b60006118ba85828601611853565b92505060206118cb85828601611853565b9150509250929050565b600081519050919050565b600082825260208201905092915050565b6000819050602082019050919050565b61190a81611803565b82525050565b600061191c8383611901565b60208301905092915050565b6000602082019050919050565b6000611940826118d5565b61194a81856118e0565b9350611955836118f1565b8060005b8381101561198657815161196d8882611910565b975061197883611928565b925050600181019050611959565b5085935050505092915050565b600060208201905081810360008301526119ad8184611935565b905092915050565b60008115159050919050565b6119ca816119b5565b82525050565b60006020820190506119e560008301846119c1565b92915050565b600082825260208201905092915050565b7f506f6f6c20646f65736e27742065786973742100000000000000000000000000600082015250565b6000611a326013836119eb565b9150611a3d826119fc565b602082019050919050565b60006020820190508181036000830152611a6181611a25565b9050919050565b7f4e487b7100000000000000000000000000000000000000000000000000000000600052601160045260246000fd5b6000611aa282611803565b9150611aad83611803565b9250828201905080821115611ac557611ac4611a68565b5b92915050565b600073ffffffffffffffffffffffffffffffffffffffff82169050919050565b6000611af682611acb565b9050919050565b611b0681611aeb565b82525050565b6000602082019050611b216000830184611afd565b92915050565b600081519050611b368161183c565b92915050565b600060208284031215611b5257611b51611837565b5b6000611b6084828501611b27565b91505092915050565b7f5374616b696e6720616d6f756e7420697320657863656564696e67207573657260008201527f2042616c616e6365210000000000000000000000000000000000000000000000602082015250565b6000611bc56029836119eb565b9150611bd082611b69565b604082019050919050565b60006020820190508181036000830152611bf481611bb8565b9050919050565b7f6e6f7420656e6f75676820616d6f756e7420666f72207374616b696e67212100600082015250565b6000611c31601f836119eb565b9150611c3c82611bfb565b602082019050919050565b60006020820190508181036000830152611c6081611c24565b9050919050565b7f4669786564205374616b696e673d3e20496e617070726f70696174652073746160008201527f6b696e6720616d6f756e742c20616d6f756e742073686f756c6420626520657860208201527f6163746c7920657175616c20746f2073706563696669656420616d6f756e7421604082015250565b6000611ce96060836119eb565b9150611cf482611c67565b606082019050919050565b60006020820190508181036000830152611d1881611cdc565b9050919050565b6000606082019050611d346000830186611afd565b611d416020830185611afd565b611d4e604083018461180d565b949350505050565b611d5f816119b5565b8114611d6a57600080fd5b50565b600081519050611d7c81611d56565b92915050565b600060208284031215611d9857611d97611837565b5b6000611da684828501611d6d565b91505092915050565b7f556e73756363657366756c6c205374616b696e67210000000000000000000000600082015250565b6000611de56015836119eb565b9150611df082611daf565b602082019050919050565b60006020820190508181036000830152611e1481611dd8565b9050919050565b7f7573657220686173207374616b6564206d6f6e657920696e206120706f6f6c21600082015250565b6000611e516020836119eb565b9150611e5c82611e1b565b602082019050919050565b60006020820190508181036000830152611e8081611e44565b9050919050565b6000611e9282611803565b91507fffffffffffffffffffffffffffffffffffffffffffffffffffffffffffffffff8203611ec457611ec3611a68565b5b600182019050919050565b7f4669786564205374636b696e67203d3e20506c65617365207761697420666f7260008201527f20746865207374616b696e672074696d6520746f2067657420656e6420616e6460208201527f207468656e2074727920616761696e20746f20636c61696d20796f757220726560408201527f7761726421000000000000000000000000000000000000000000000000000000606082015250565b6000611f776065836119eb565b9150611f8282611ecf565b608082019050919050565b60006020820190508181036000830152611fa681611f6a565b9050919050565b7f5573657220686173206e6f74207374616b656420696e20666972737420706c6160008201527f636520746f207265636569766520616e7920726577617264206f7220616c726560208201527f6164792072656365697665642074686520617761726420666f7220746861742060408201527f706172746963756c6172207374616b696e672100000000000000000000000000606082015250565b60006120556073836119eb565b915061206082611fad565b608082019050919050565b6000602082019050818103600083015261208481612048565b9050919050565b60006040820190506120a06000830185611afd565b6120ad602083018461180d565b9392505050565b7f4669786564205374616b696e67203d3e20536f6d657468696e672077656e742060008201527f77726f6e67207768696c6520726566756e64696e6720746865207374616b656460208201527f20616d6f756e7421000000000000000000000000000000000000000000000000604082015250565b60006121366048836119eb565b9150612141826120b4565b606082019050919050565b6000602082019050818103600083015261216581612129565b9050919050565b7f4669786564205374616b696e67203d3e2055736572206861732077697468647260008201527f6177616e20746865207374616b656420616d6f756e742073756363657373667560208201527f6c6c792100000000000000000000000000000000000000000000000000000000604082015250565b60006121ee6044836119eb565b91506121f98261216c565b606082019050919050565b6000602082019050818103600083015261221d816121e1565b9050919050565b7f4669786564205374616b696e67203d3e20536f6d657468696e672077656e742060008201527f77726f6e67207768696c652073656e64696e672074686520726577617264207460208201527f6f207374616b6572210000000000000000000000000000000000000000000000604082015250565b60006122a66049836119eb565b91506122b182612224565b606082019050919050565b600060208201905081810360008301526122d581612299565b9050919050565b7f4669786564205374616b696e67203d3e2055736572206861732073756363657360008201527f7366756c6c7920726563656976656420617761726420746f6b656e2100000000602082015250565b6000612338603c836119eb565b9150612343826122dc565b604082019050919050565b600060208201905081810360008301526123678161232b565b9050919050565b7f466c657869626c65205374616b696e67203d3e20536f6d657468696e6720776560008201527f6e742077726f6e67207768696c6520726566756e64696e67207468652073746160208201527f6b656420616d6f756e7421000000000000000000000000000000000000000000604082015250565b60006123f0604b836119eb565b91506123fb8261236e565b606082019050919050565b6000602082019050818103600083015261241f816123e3565b9050919050565b7f466c657869626c65205374616b696e67203d3e2055736572206861732077697460008201527f6864726177616e20746865207374616b656420616d6f756e742073756363657360208201527f7366756c6c792100000000000000000000000000000000000000000000000000604082015250565b60006124a86047836119eb565b91506124b382612426565b606082019050919050565b600060208201905081810360008301526124d78161249b565b9050919050565b7f466c657869626c65205374616b696e67203d3e20536f6d657468696e6720776560008201527f6e742077726f6e67207768696c652073656e64696e672074686520726577617260208201527f6420746f207374616b6572210000000000000000000000000000000000000000604082015250565b6000612560604c836119eb565b915061256b826124de565b606082019050919050565b6000602082019050818103600083015261258f81612553565b9050919050565b7f466c657869626c65205374616b696e67203d3e2055736572206861732073756360008201527f6365737366756c6c7920726563656976656420617761726420746f6b656e2100602082015250565b60006125f2603f836119eb565b91506125fd82612596565b604082019050919050565b60006020820190508181036000830152612621816125e5565b9050919050565b7f4e487b7100000000000000000000000000000000000000000000000000000000600052603260045260246000fd5b600061266282611803565b915061266d83611803565b925082820390508181111561268557612684611a68565b5b92915050565b600061269682611803565b9150600082036126a9576126a8611a68565b5b600182039050919050565b7f757365722068617320756e7374616b656420746865206d656e74696f6e65642060008201527f616d6f756e742066726f6d206120706f6f6c20616e642068617320726563656960208201527f7665642072657761726421000000000000000000000000000000000000000000604082015250565b6000612736604b836119eb565b9150612741826126b4565b606082019050919050565b6000602082019050818103600083015261276581612729565b9050919050565b600061277782611803565b915061278283611803565b925082820261279081611803565b915082820484148315176127a7576127a6611a68565b5b5092915050565b7f4e487b7100000000000000000000000000000000000000000000000000000000600052601260045260246000fd5b60006127e882611803565b91506127f383611803565b925082612803576128026127ae565b5b82820490509291505056fea2646970667358221220d53a3b97f71c54427300132f68c3e1435547cfd94a8b60deddc19fed86cf33b664736f6c63430008110033",
  "linkReferences": {},
  "deployedLinkReferences": {}
}